:100000000C94CA000C94F2000C94F2000C94F200D0
:100010000C94F2000C94F2000C94F2000C94F20098
:100020000C94F2000C94F2000C94F2000C94F20088
:100030000C94F2000C94F2000C94F2000C94F20078
:100040000C946A090C94F2000C9438090C9412096F
:100050000C94F2000C94F2000C94F2000C94F20058
:100060000C94F2000C94F20000000000250028001F
:100070002B0000000000240027002A0000000000E0
:1000800023002600290004040404040404040202DA
:100090000202020203030303030301020408102007
:1000A000408001020408102001020408102057417A
:1000B000524E494E473A20436F6D6D756E696361CC
:1000C00074696F6E206661696C7572652C20697346
:1000D00020746865204D4652433532322070726F6D
:1000E0007065726C7920636F6E6E65637465643FD2
:1000F00000203D2028756E6B6E6F776E2900203DC5
:1001000020636F756E7465726665697420636869D3
:100110007000203D2076322E3000203D2076312E9A
:100120003000203D2076302E3000203D2028636CAA
:100130006F6E6529004669726D776172652056653C
:100140007273696F6E3A203078005363616E20508D
:1001500049434320746F20736565205549442C2022
:1001600053414B2C20747970652C20616E6420649F
:1001700061746120626C6F636B732E2E2E00000021
:100180000008000201000003040700000000000056
:100190000000B40911241FBECFEFD8E0DEBFCDBFF1
:1001A00022E0AEEBB1E001C01D92AD37B207E1F73E
:1001B00011E0A0E0B1E0EEEDFEE102C005900D928D
:1001C000AE3BB107D9F710E0CAECD0E004C02197EC
:1001D000FE010E94640DC93CD107C9F70E94EB09DA
:1001E0000C946D0F0C9400008CBD9DBD0895AF92D2
:1001F000BF92CF92DF92EF92FF920F931F93CF9314
:10020000DF936C017B018B01040F151FEB015E0175
:10021000AE18BF08C017D10759F06991D601ED910A
:10022000FC910190F081E02DC6010995892B79F7A9
:10023000C501DF91CF911F910F91FF90EF90DF905B
:10024000CF90BF90AF900895FC01538D448D252F22
:1002500030E0842F90E0821B930B541710F0CF9660
:10026000089501970895FC01918D828D981761F092
:10027000A28DAE0FBF2FB11D5D968C91928D9F5FA9
:100280009F73928F90E008958FEF9FEF0895FC0188
:10029000918D828D981731F0828DE80FF11D858D3B
:1002A00090E008958FEF9FEF0895FC01918D228DCE
:1002B000892F90E0805C9F4F821B91098F73992753
:1002C00008958CEC91E00E94550121E0892B09F4FE
:1002D00020E0822F089580E090E0892B29F00E9491
:1002E000610181110C9400000895FC01A48DA80FF8
:1002F000B92FB11DA35ABF4F2C91848D90E0019668
:100300008F739927848FA689B7892C93A089B18987
:100310008C91837080648C93938D848D981306C028
:100320000288F389E02D80818F7D80830895EF928C
:10033000FF920F931F93CF93DF93EC0181E0888F9F
:100340009B8D8C8D98131AC0E889F989808185FF6F
:1003500015C09FB7F894EE89FF896083E889F98911
:1003600080818370806480839FBF81E090E0DF9113
:10037000CF911F910F91FF90EF900895F62E0B8D66
:1003800010E00F5F1F4F0F731127E02E8C8D8E1121
:100390000CC00FB607FCFACFE889F989808185FF88
:1003A000F5CFCE010E947501F1CFEB8DEC0FFD2F43
:1003B000F11DE35AFF4FF0829FB7F8940B8FEA8943
:1003C000FB8980818062CFCF0F931F93CF93DF9300
:1003D0008C01D0E0C0E0F801EC0FFD1F64916623B2
:1003E00041F08CEC91E00E949701892B11F021964D
:1003F000F2CFCE01DF91CF911F910F910895CF934E
:10040000DF93EC01888D8823B9F0AA89BB89E8893C
:10041000F9898C9185FD03C0808186FD0DC00FB6E2
:1004200007FCF7CF8C9185FFF2CF808185FFEDCF60
:10043000CE010E947501E9CFDF91CF9108958330FD
:1004400081F028F4813099F08230A9F00895873046
:10045000A9F08830C9F08430B1F4809180008F7D9C
:1004600003C0809180008F7780938000089584B5C9
:100470008F7784BD089584B58F7DFBCF8091B000C8
:100480008F778093B00008958091B0008F7DF9CF71
:100490001F93CF93DF93282F30E0F901E258FE4FEE
:1004A0008491F901E656FF4FD491F901EA57FF4FC5
:1004B000C491CC23A9F0162F81110E941F02EC2FAA
:1004C000F0E0EE0FFF1FE859FF4FA591B4918FB7F1
:1004D000F894EC91111108C0D095DE23DC938FBF06
:1004E000DF91CF911F910895DE2BF8CFCF93DF934B
:1004F00090E0FC01E656FF4F24918A579F4FFC0184
:1005000084918823D1F090E0880F991FFC01EE5868
:10051000FF4FA591B491FC01E859FF4FC591D491CB
:1005200061110EC09FB7F8948C91E22FE0958E2355
:100530008C932881E223E8839FBFDF91CF910895B8
:100540008FB7F894EC91E22BEC938FBFF6CF8E30FF
:1005500008F08E508770806480937C0080917A00D0
:10056000806480937A0080917A0086FDFCCF809130
:1005700078009091790008953FB7F8948091BF0179
:100580009091C001A091C101B091C20126B5A89B74
:1005900005C02F3F19F00196A11DB11D3FBFBA2F15
:1005A000A92F982F8827BC01CD01620F711D811DD5
:1005B000911D42E0660F771F881F991F4A95D1F75A
:1005C00008958F929F92AF92BF92CF92DF92EF9257
:1005D000FF924B015C010E94BC026B017C010E94F6
:1005E000BC026C197D098E099F09683E7340810524
:1005F0009105A8F321E0821A9108A108B10888EEBC
:10060000C80E83E0D81EE11CF11C81149104A104E2
:10061000B10429F7FF90EF90DF90CF90BF90AF909B
:100620009F908F900895BC016E5F7F4FDC01ED912C
:10063000FC910190F081E02D40E0099591E081115D
:1006400090E0892F089508958EBD00000DB407FE37
:10065000FDCF8EB50895DF92EF92FF920F931F9317
:10066000CF93DF937C01062FD42E152F80E590E0E9
:100670000E94F40060E0F70186850E94480282E152
:100680000E942403CD2DD12F0C0F1D2F111DC0173B
:10069000D10721F089910E942403F9CF61E0F7018D
:1006A0008685DF91CF911F910F91FF90EF90DF90A2
:1006B0000C9448021F93CF93DF93EC01162F80E533
:1006C00090E00E94F40060E08E850E944802812F35
:1006D00080680E94240380E00E942403182F61E0B8
:1006E0008E850E944802812FDF91CF911F9108953E
:1006F0000F931F93CF93DF93EC01062F142F80E508
:1007000090E00E94F40060E08E850E944802802FF5
:100710000E942403812F0E94240361E08E85DF91D3
:10072000CF911F910F910C944802CF92DF92EF92DC
:10073000FF920F931F93CF93DF93EC016B01F42E85
:10074000890140E062E00E94780344E06AE0CE0163
:100750000E94780340E864E1CE010E947803A6017C
:100760006F2DCE010E942B0343E062E0CE010E9478
:1007700078038FB7F894C090C801D090C901E09079
:10078000CA01F090CB018FBF89E5C80ED11CE11CD6
:10079000F11C6AE0CE010E945A0382FF1BC040E0B8
:1007A00062E0CE010E94780364E4CE010E945A0305
:1007B000F801808362E4CE010E945A03F80181832C
:1007C00080E0DF91CF911F910F91FF90EF90DF902C
:1007D000CF9008952FB7F8948091C8019091C901E6
:1007E000A091CA01B091CB012FBF8C159D05AE051C
:1007F000BF0578F283E0E5CF2F923F924F925F9250
:100800006F927F928F929F92AF92CF92DF92EF92F0
:10081000FF920F931F93CF93DF9300D0CDB7DEB736
:100820004C012B01D42E390180E0E114F10411F0C8
:10083000F70180813C2C329490EF3922380E40E051
:1008400062E0C4010E9478034FE768E0C4010E949F
:10085000780340E864E1C4010E947803A2016D2D91
:10086000C4010E942B03432D6AE1C4010E94780356
:100870004CE062E0C4010E9478036AE1C4010E9476
:100880005A03482F40686AE1C4010E9478038FB779
:10089000F8942090C8013090C9014090CA0150904E
:1008A000CB018FBFF4E22F0E311C411C511C68E0BC
:1008B000C4010E945A03982F907309F0C0C080FFB2
:1008C00015C083E00F900F90DF91CF911F910F9192
:1008D000FF90EF90DF90CF90AF909F908F907F90A0
:1008E0006F905F904F903F902F9008952FB7F8949E
:1008F0008091C8019091C901A091CA01B091CB012A
:100900002FBF82159305A405B50588F2DACF6114CF
:10091000710409F469C00115110509F465C064E1A9
:10092000C4010E945A03382EF8018081831508F40F
:1009300080C030823320E1F180E590E00E94F40035
:1009400060E0F40186850E9448023A9482E90E94A0
:100950002403CC20B1F08FEF90E09C0102C0220F65
:10096000331FCA94E2F7690182E90E9424039C2D97
:100970009095F301208192238C21982B9083CC2495
:10098000C39423014C0C511CC31440F482E90E940F
:100990002403F20181932F01C394F6CF80E00E94DB
:1009A0002403F201808361E0F40186850E944802FD
:1009B00068E1C4010E945A038770E114F10411F048
:1009C000F701808323FC37C061147104B1F1011574
:1009D000110599F1AA2089F1F8014081413031F4E3
:1009E000843029F58FEF6ECF80E0ECCF4230F8F005
:1009F00081111DC042509E012F5F3F4FB301C401C2
:100A00000E94950381115ECFF8019081690E711CDF
:100A1000F301329720819981291309C0F1E06F1AFF
:100A20007108F30120819A81291709F44BCF87E0DF
:100A300049CF84E047CF82E045CF80E043CF6CE0F0
:100A4000C4010E945A03282E837109F460CF81E00B
:100A500039CF8F929F92AF92CF92EF92FF920F93E6
:100A60001F93CF93DF9300D000D01F92CDB7DEB796
:100A70004C0182E08D8340E064E2C4010E9478036F
:100A800040E066E2C4010E94780346E268E4C401E3
:100A90000E94780386E28B838D818230D8F16CE1ED
:100AA000C4010E945A03482F4F776CE1C4010E9491
:100AB000780387E08C83A12CC12CCE0104967C01A5
:100AC0008E010B5F1F4F9E012F5F3F4F41E0BE0124
:100AD0006D5F7F4FC4010E94FC03982F811117C0E6
:100AE0008D818230B9F48C81811114C081E00F9026
:100AF0000F900F900F900F90DF91CF911F910F915A
:100B0000FF90EF90CF90AF909F908F90089581E0ED
:100B1000923069F380E0EBCF2F923F924F925F9239
:100B20006F927F928F929F92AF92BF92CF92DF92FD
:100B3000EF92FF920F931F93CF93DF93CDB7DEB762
:100B40002D970FB6F894DEBF0FBECDBF16E041352E
:100B500008F04AC1342E3B014C016CE10E945A035B
:100B6000482F4F776CE1C4010E94780383E98983A1
:100B7000332029F081E0F3019081953008F480E082
:100B800022242394B12C9B2D990F990F990FD32CCC
:100B9000D91AD7FCD12C32E0882319F098E89B832E
:100BA00033E021E09D2D977009F420E09D2D95956F
:100BB00095959595290FC9F094E0811193E0291737
:100BC00008F4922FEB2DF0E03196E60DF71D232F60
:100BD0004191A1E0B0E0AC0FBD1FA20FB11D4C933D
:100BE0002F5F422F431B491798F3882311F0F8E039
:100BF000DF0E8FE18D150CF082C090E79A838B8118
:100C00009C8189279D8189279E8189278F839E01C9
:100C1000285F3F4F47E0BE016F5F7F4FC4010E94D6
:100C20009503182F8111E0C01A86E3E0EB87DC867C
:100C3000CE0107962C0199E09D87CA844C2D4295E0
:100C4000407F4C0D6AE1C4010E947803A12CCE01C3
:100C50000A967C018E01055F1F4F92014D85BE01F2
:100C60006F5F7F4FC4010E94FC03182F823009F090
:100C700065C06CE1C4010E945A0385FDB5C08F7147
:100C800009F480E2282F30E04D2DDD0C550B421782
:100C900053070CF09DC0D82EE82FE595E595E59516
:100CA000EF5F982F977081E009F480E0E80F81E012
:100CB00090E08C0F9D1F8E0F911DFC01215031097A
:100CC0002770332781E090E002C0880F991F2A9592
:100CD000E2F79C018081822B80838BCF85E9898319
:100CE000332031F081E0F3019081983008F04BCF50
:100CF00080E049CF87E9898326E0B22EF9CF9D2D88
:100D000097709A878D2D8595859585958E5F282F6F
:100D10002295207F290F2A8321E0911101C020E034
:100D2000280F2D8744244394512C4C0E5D1E480EF1
:100D3000511CE9E0E81BEB87DC867FCF811154C0B2
:100D400080E2D82E9C8590320CF457CF8B81883866
:100D500009F040C083E093E0EB2DF0E03196E60D22
:100D6000F71D980FA1E0B0E0AC0FBD1FA80FB11D9B
:100D70002C9121938F5F8913F5CFBB84E3E0BE12E2
:100D80004DC08A8581114AC09E012D5F3F4F41E0D1
:100D9000B201C4010E949503182F811125C09B81C7
:100DA000F201818198133CC09C818281981338C0E4
:100DB000808182FF12C02394F2E02F1609F48ECFB7
:100DC00083E0281609F496CF91E0291609F4CECED7
:100DD00015E00AC082E094E0BFCFF3018387822D43
:100DE000880F820D8F5F8083812F2D960FB6F89428
:100DF000DEBF0FBECDBFDF91CF911F910F91FF904E
:100E0000EF90DF90CF90BF90AF909F908F907F90AA
:100E10006F905F904F903F902F90089511E0E4CF36
:100E200017E0E2CFFC0101900020E9F73197AF0114
:100E3000481B590BBC018CEC91E00C94F700CF934C
:100E4000DF930E94E401EC0182E291E00E9412072C
:100E50008C0F9D1FDF91CF9108958F929F92AF923B
:100E6000BF920F931F93CF93DF93CDB7DEB7A197B8
:100E70000FB6F894DEBF0FBECDBF19A2423008F402
:100E80004AE08E010F5D1F4F842E912CB12CA12CB6
:100E9000A50194010E94420DE62FB901CA01EA3072
:100EA000F4F4E05DD801EE938D01232B242B252B48
:100EB00079F790E080E0109719F0CD010E941207B9
:100EC000A1960FB6F894DEBF0FBECDBFDF91CF91D4
:100ED0001F910F91BF90AF909F908F900895E95C04
:100EE000E1CFCF93DF930E941207EC0182E291E001
:100EF0000E9412078C0F9D1FDF91CF910895FC0176
:100F000080819181009711F00C94060E0895E3E81A
:100F1000F1E0E491E33039F140F4E130C1F0E23046
:100F2000E1F061E085E00C944802E73041F1E830FF
:100F300079F1E430B1F78091800080628093800085
:100F400082E890E090938B0080938A00089584B5A6
:100F5000806884BD82E887BD089584B5806284BDC1
:100F600082E888BD08958091800080688093800029
:100F700082E890E0909389008093880008958091A2
:100F8000B00080688093B00082E88093B300089539
:100F90008091B00080628093B00082E88093B400BA
:100FA000089560E088E00E94480260E273E080E01B
:100FB00090E00E94E10261E085E00E9476020E94DA
:100FC000870760E087E00E94480261E086E00E94B7
:100FD000480285E291E00E94710764EF71E080E0D1
:100FE00090E00E94E10260E087E00E94480260E039
:100FF00086E00C94480261E085E00E9476020E943F
:10100000870761E087E00E94480260E086E00E9476
:10101000480284E391E00E94710768E572E080E095
:1010200090E00E94E10260E087E00E94480260E0F8
:1010300086E00E94480260E273E080E090E00E9457
:10104000E10261E088E00C9448020F931F93CF9374
:10105000DF93EC0188819981009759F02A813B81C7
:101060002617370730F081E0DF91CF911F910F9164
:1010700008958B016F5F7F4F0E948F0E009759F08C
:10108000998388831B830A832C813D81232B59F705
:10109000FC011082E8CF80E0E7CFEF92FF920F9340
:1010A0001F93CF93DF93FB01E080F180E114F10403
:1010B00041F480E0DF91CF911F910F91FF90EF906D
:1010C00008950481158101151105B1F0EC018C81A1
:1010D0009D81080F191FB801CE010E9425088823A1
:1010E00041F3288139818C819D81B701820F931F43
:1010F0000E94660F1D830C8381E0DCCFEF92FF928C
:101100000F931F93CF93DF93EC017B018A01BA0108
:101110000E94250828813981811114C021153105CB
:1011200019F0C9010E94060E198218821D821C82C4
:101130001B821A82CE01DF91CF911F910F91FF90F8
:10114000EF9008951D830C83B701C9010E94660FBB
:10115000F1CFAF92BF92CF92DF92EF92FF920F93B7
:101160001F93CF93DF93EC017B015A01CC24C394EE
:10117000D12C452B29F4D12CC12CAA24A394B12C19
:10118000198218821B821A821D821C8250E040E064
:1011900064E271E0CE010E947E08D70114960D91A1
:1011A0001C91C016D10628F5A016B10608F48501D9
:1011B000D701ED91FC911197E00FF11FB0801082E3
:1011C0006D917C916C0D7D1D61157105F1F0FB0138
:1011D00001900020E9F73197AF01461B570BCE0174
:1011E0000E947E08F70180819181080F191FD801A4
:1011F000BC92CE01DF91CF911F910F91FF90EF90A4
:10120000DF90CF90BF90AF9008958881998100972B
:1012100011F00E94060E198218821D821C821B8208
:101220001A82E0CF1F920F920FB60F9211242F93C4
:101230003F934F935F936F937F938F939F93AF935E
:10124000BF93EF93FF938CEC91E00E947501FF91A7
:10125000EF91BF91AF919F918F917F916F915F912E
:101260004F913F912F910F900FBE0F901F901895A7
:101270001F920F920FB60F9211242F938F939F936B
:10128000EF93FF93E091DC01F091DD018081E0912B
:10129000E201F091E30182FD1BC090818091E501A4
:1012A0008F5F8F732091E601821741F0E091E50195
:1012B000F0E0E453FE4F958F8093E501FF91EF91AD
:1012C0009F918F912F910F900FBE0F901F901895A7
:1012D0008081F4CF1F920F920FB60F9211242F939B
:1012E0003F938F939F93AF93BF938091C801909149
:1012F000C901A091CA01B091CB013091BE0123E098
:10130000230F2D3758F50196A11DB11D2093BE0165
:101310008093C8019093C901A093CA01B093CB01F7
:101320008091BF019091C001A091C101B091C20113
:101330000196A11DB11D8093BF019093C001A093A0
:10134000C101B093C201BF91AF919F918F913F9125
:101350002F910F900FBE0F901F90189526E8230F26
:101360000296A11DB11DD2CFECECF1E013821282E6
:1013700088EE93E0A0E0B0E084839583A683B783F2
:101380008AE091E09183808385EC90E09587848763
:1013900084EC90E09787868780EC90E0918B808B3F
:1013A00081EC90E0938B828B82EC90E0958B848B28
:1013B00086EC90E0978B868B118E128E138E148E96
:1013C000E9E6F2E08CE191E0918380838AE0868710
:1013D00089E087870895CF93DF93CDB7DEB7659710
:1013E0000FB6F894DEBF0FBECDBF789484B582608F
:1013F00084BD84B5816084BD85B5826085BD85B5B9
:10140000816085BD80916E00816080936E00109236
:1014100081008091810082608093810080918100B1
:101420008160809381008091800081608093800042
:101430008091B10084608093B1008091B0008160A0
:101440008093B00080917A00846080937A008091CC
:101450007A00826080937A0080917A008160809324
:101460007A0080917A00806880937A001092C1009F
:1014700061E087E00E94760261E086E00E947602E9
:1014800061E085E00E94760261E088E00E947602D9
:1014900060E08EE00E94760260E08FE00E947602BB
:1014A00061E083E00E94760261E084E00E947602BF
:1014B00061E088E00E944802E091DC01F091DD01EA
:1014C00082E08083E091D801F091D9011082E0910F
:1014D000DA01F091DB018FEC80831092E401E0915E
:1014E000E001F091E10186E08083E091DE01F0917E
:1014F000DF01808180618083E091DE01F091DF0176
:10150000808188608083E091DE01F091DF0180813D
:1015100080688083E091DE01F091DF0180818F7D22
:1015200080831FB7F8948091C301811127C0E0E93F
:10153000F0E08491E4EAF0E09491E82FF0E0EE0F1F
:10154000FF1FEE58FF4FA591B491EC91E92321F4D0
:1015500061E08AE00E94480261E08AE00E9476022F
:101560008CB580618CBD8CB580648CBD61E08DE0F4
:101570000E94760261E08BE00E9476028091C301B6
:101580008F5F8093C3011FBF61E0809177020E944B
:10159000760261E0809177020E9448028091780291
:1015A0008F3F09F4AAC060E00E9476022091780281
:1015B00030E0F901E258FE4F8491F901E656FF4F01
:1015C0000491F901EA57FF4F1491111187C061E0AE
:1015D000809178020E94760260E0809178020E94F9
:1015E000480283E090E00197F1F761E08091780292
:1015F0000E94480262E370E080E090E00E94E10215
:1016000040E064E289E692E00E94780340E066E20E
:1016100089E692E00E94780346E268E489E692E077
:101620000E94780340E864E589E692E00E9478032E
:1016300049EA66E589E692E00E94780343E068E5BE
:1016400089E692E00E94780348EE6AE589E692E036
:101650000E94780340E46AE289E692E00E947803FF
:101660004DE362E289E692E00E94780368E289E64F
:1016700092E00E945A03982F9370933039F0482FCC
:10168000436068E289E692E00E94780364E070E0DB
:1016900080E090E00E94E1026EE689E692E00E941E
:1016A0005A03182F85E391E00E94E401612F70E056
:1016B00090E080E040E10E942D0782E291E0103945
:1016C00009F43AC088F58EEF90E01231A9F18AE270
:1016D00091E0183889F181EF90E02EC081110E94CD
:1016E0001F02E12FF0E0EE0FFF1FE458FF4FA5911E
:1016F000B491EC910E2309F46ACF4FE062E089E6E1
:1017000092E00E94780313E062E370E080E090E0F2
:101710000E94E10262E089E692E00E945A0384FF9F
:101720006FCF115089F76CCF8AE191E0113921F028
:1017300082E191E0123979F60E941F0711501E3F95
:1017400020F08EEA90E00E941F078AE491E00E9458
:101750001F078E010F5F1F4F80E0C82E80E0D82E3C
:101760008EE00E94A7025C019093C7018093C6019E
:101770008FE00E94A7027C019093C5018093C40171
:1017800061E02DE2A21621E0B2060CF060E083E0F9
:101790000E94480261E03EE2E316F1040CF060E0D2
:1017A00084E00E94480289E692E00E94290588238D
:1017B00009F4C6C089E692E00E941303882309F465
:1017C000BFC0198A188A1B8A1A8A1D8A1C8A50E08F
:1017D00040E064E271E0CE0140960E947E08B12CA8
:1017E00080916B02B81608F05EC08B2D90E0FC0172
:1017F000E759FD4F7F018381803108F4DFC08FE41A
:1018000091E00E941207F701638170E090E080E0B0
:1018100040E10E942D07F701838163E471E080318C
:1018200010F06FE471E01A8219821C821B821E8202
:101830001D82FB0101900020E9F73197AF01461BA3
:10184000570BC8010E947E08B801CE0140960E9445
:101850004D08C8010E947F07F70183811B861A8605
:101860001D861C861F861E8640E1B80190E00E94FE
:10187000E10CF80101900020E9F73197AF01401B1E
:10188000510BB801CE010A960E947E08BE01665F28
:101890007F4FCE0140960E944D08CE010A960E94CD
:1018A0007F07B3949DCF82E291E00E94120786E405
:1018B00091E00E941207E888F988E114F10471F0C0
:1018C000F70181917F01882349F0082E000C990BC4
:1018D0000E944C0FF70131978083F2CF4C895D89CC
:1018E000BE01605F7F4FC8010E94A9088D819E8163
:1018F000892B51F061E571E089819A810E945D0F29
:10190000FF24F394892B09F0F12CC8010E947F0772
:10191000FF2011F18DE591E00E9471078FE691E0C3
:101920000E9471070E94D10760ED77E080E090E0AF
:101930000E94E1020E94FB07CE0140960E947F07B1
:10194000C114D10409F40CCF0E946101882309F469
:1019500003CF0E94000000CF4C895D89BE01605F0B
:101960007F4FC8010E94A9088D819E81892B59F063
:101970006BE771E089819A810E945D0FFF24F394E7
:10198000892B09F0F12CC8010E947F07FF2039F054
:101990008DE591E00E94710787E891E0C1CF8EE963
:1019A00091E00E9471078DEA91E00E94120768EEB3
:1019B00073E080E090E00E94E102BECF83E491E01A
:1019C00020CFBB27FB015527AA27880F991FAA1FE5
:1019D000A41710F0A41B83955051B9F7A05DAA334A
:1019E00008F0A95DA193009779F7B111B193119215
:1019F000CB010C94FB0CDC01FC01672F7191772368
:101A0000E1F7329704C07C916D9370836291AE17B9
:101A1000BF07C8F308952F923F924F925F926F9243
:101A20007F928F929F92AF92BF92CF92DF92EF926E
:101A3000FF920F931F93CF93DF93CDB7DEB7CA1BEF
:101A4000DB0B0FB6F894DEBF0FBECDBF09942A881A
:101A5000398848885F846E847D848C849B84AA84C2
:101A6000B984C884DF80EE80FD800C811B81AA814F
:101A7000B981CE0FD11D0FB6F894DEBF0FBECDBF1A
:101A8000ED010895A1E21A2EAA1BBB1BFD010DC09A
:101A9000AA1FBB1FEE1FFF1FA217B307E407F5071E
:101AA00020F0A21BB30BE40BF50B661F771F881FFA
:101AB000991F1A9469F760957095809590959B0190
:101AC000AC01BD01CF010895EE0FFF1F0590F49109
:101AD000E02D09940F931F93CF93DF9382309105EC
:101AE00010F482E090E0E0917B02F0917C0230E023
:101AF00020E0B0E0A0E0309799F42115310509F419
:101B00004AC0281B390B24303105D8F58A819B81C6
:101B10006115710589F1FB0193838283FE0111C078
:101B2000408151810281138148175907E0F048171D
:101B3000590799F4109761F012960C931297139627
:101B40001C933296CF01DF91CF911F910F91089591
:101B500000937B0210937C02F4CF2115310551F0E4
:101B60004217530738F0A901DB019A01BD01DF01DB
:101B7000F801C1CFEF01F9CF90937C0280937B02F3
:101B8000CDCFFE01E20FF31F8193919322503109D3
:101B900039832883D7CF2091790230917A02232B81
:101BA00041F4209102013091030130937A02209395
:101BB000790220910001309101012115310541F494
:101BC0002DB73EB74091040150910501241B350B00
:101BD000E0917902F0917A02E217F307A0F42E1B4C
:101BE0003F0B2817390778F0AC014E5F5F4F241781
:101BF000350748F04E0F5F1F50937A0240937902E9
:101C0000819391939FCFF0E0E0E09CCFCF93DF935F
:101C10000097E9F0FC01329713821282A0917B02B7
:101C2000B0917C02ED0130E020E01097A1F420811A
:101C30003181820F931F2091790230917A02281707
:101C4000390709F061C0F0937A02E0937902DF91DD
:101C5000CF910895EA01CE17DF07E8F54A815B814D
:101C60009E0141155105B1F7E901FB83EA834991D2
:101C70005991C40FD51FEC17FD0761F48081918144
:101C80000296840F951FE90199838883828193814D
:101C90009B838A83F0E0E0E012968D919C911397EC
:101CA0000097B9F52D913C911197CD010296820FC5
:101CB000931F2091790230917A022817390739F65B
:101CC000309751F510927C0210927B02B0937A0209
:101CD000A0937902BCCFD383C28340815181840F0A
:101CE000951FC817D90761F44E5F5F4F88819981AE
:101CF000480F591F518340838A819B81938382833C
:101D00002115310509F0B0CFF0937C02E0937B02FE
:101D10009ECFFD01DC01C0CF13821282D7CFB0E08D
:101D2000A0E0E5E9FEE00C940D0D8C01009751F464
:101D3000CB010E946A0D8C01C801CDB7DEB7E0E18E
:101D40000C94290DFC01E60FF71F9C01225031096C
:101D5000E217F30708F49DC0D901CD91DC911197EA
:101D6000C617D70798F0C530D10530F3CE010497D8
:101D70008617970708F3C61BD70B2297C193D193F9
:101D80006D937C93CF010E94060ED6CF5B01AC1AF7
:101D9000BD0A4C018C0E9D1EA0917B02B0917C026D
:101DA000512C412CF12CE12C109731F580917902C6
:101DB00090917A028815990509F05CC0461657067D
:101DC00008F058C08091000190910101009741F402
:101DD0008DB79EB74091040150910501841B950B6E
:101DE000E817F90708F055C0F0937A02E0937902FA
:101DF000F90171836083A0CF8D919C911197129608
:101E00006C90129713967C901397A815B90559F505
:101E10006C0142E0C40ED11CCA14DB0420F1AC01F9
:101E20004A195B09DA011296159780F06282738273
:101E300051834083D9016D937C93E114F10471F0D7
:101E4000D7011396FC93EE93129776CF22968C0FC0
:101E50009D1FF90191838083F301EFCFF0937C0202
:101E6000E0937B0269CF4816590608F42C017D01E6
:101E7000D3019ACFCB010E946A0D7C01009749F0F3
:101E8000AE01B8010E94540FC8010E94060E8701DE
:101E900053CF10E000E050CF9111089581568A5140
:101EA00008F4805285580895FB01DC0102C00190BE
:101EB0000D9241505040D8F70895FB01DC018D91FF
:101EC000019080190110D9F3990B0895FB01DC01F1
:0E1ED00001900D920020E1F70895F894FFCFE5
:101EDE0000007D028000000000009701F700240141
:101EEE00FF01550133014701000000008C05290553
:101EFE0013030D0A00204F70656E696E6720646FC4
:101F0E006F72200020436C6F73696E6720646F6F71
:101F1E007220002030004D657373616765203A2092
:101F2E00004439204131204431203843004175743A
:101F3E00686F72697A6564206163636573730057B5
:101F4E00656C636F6D6520416C69003437203039E4
:101F5E002037312042330057656C636F6D65203139
:101F6E00392D4369742D4576656E696E6700204183
:101F7E0063636573732064656E69656400506C6598
:0E1F8E006173652054727920416761696E00AD
:00000001FF
